{
  "contractName": "VoteDApp",
  "abi": [
    {
      "inputs": [
        {
          "internalType": "contract VoteToken",
          "name": "_voteToken",
          "type": "address"
        }
      ],
      "stateMutability": "nonpayable",
      "type": "constructor"
    },
    {
      "inputs": [],
      "name": "name",
      "outputs": [
        {
          "internalType": "string",
          "name": "",
          "type": "string"
        }
      ],
      "stateMutability": "view",
      "type": "function"
    },
    {
      "inputs": [],
      "name": "owner",
      "outputs": [
        {
          "internalType": "address",
          "name": "",
          "type": "address"
        }
      ],
      "stateMutability": "view",
      "type": "function"
    },
    {
      "inputs": [],
      "name": "voteID",
      "outputs": [
        {
          "internalType": "uint256",
          "name": "",
          "type": "uint256"
        }
      ],
      "stateMutability": "view",
      "type": "function"
    },
    {
      "inputs": [],
      "name": "voteToken",
      "outputs": [
        {
          "internalType": "contract VoteToken",
          "name": "",
          "type": "address"
        }
      ],
      "stateMutability": "view",
      "type": "function"
    },
    {
      "inputs": [
        {
          "internalType": "uint256",
          "name": "",
          "type": "uint256"
        }
      ],
      "name": "votes",
      "outputs": [
        {
          "internalType": "string",
          "name": "topic",
          "type": "string"
        },
        {
          "internalType": "bool",
          "name": "isFinished",
          "type": "bool"
        },
        {
          "internalType": "uint256",
          "name": "result",
          "type": "uint256"
        },
        {
          "internalType": "address",
          "name": "starterAddress",
          "type": "address"
        }
      ],
      "stateMutability": "view",
      "type": "function"
    },
    {
      "inputs": [
        {
          "internalType": "string",
          "name": "_topic",
          "type": "string"
        }
      ],
      "name": "createVote",
      "outputs": [],
      "stateMutability": "nonpayable",
      "type": "function"
    },
    {
      "inputs": [
        {
          "internalType": "uint256",
          "name": "_voteID",
          "type": "uint256"
        },
        {
          "internalType": "string",
          "name": "_option",
          "type": "string"
        }
      ],
      "name": "addOptionToVote",
      "outputs": [],
      "stateMutability": "nonpayable",
      "type": "function"
    },
    {
      "inputs": [
        {
          "internalType": "uint256",
          "name": "_voteID",
          "type": "uint256"
        },
        {
          "internalType": "uint256",
          "name": "_optionID",
          "type": "uint256"
        }
      ],
      "name": "plusOne",
      "outputs": [],
      "stateMutability": "nonpayable",
      "type": "function"
    },
    {
      "inputs": [
        {
          "internalType": "uint256",
          "name": "_voteID",
          "type": "uint256"
        }
      ],
      "name": "closeVote",
      "outputs": [],
      "stateMutability": "nonpayable",
      "type": "function"
    }
  ],
  "bytecode": "0x60806040526040518060400160405280600981526020017f566f74652044417070000000000000000000000000000000000000000000000081525060009080519060200190620000519291906200010e565b503480156200005f57600080fd5b5060405162000fae38038062000fae83398181016040528101906200008591906200023c565b80600360006101000a81548173ffffffffffffffffffffffffffffffffffffffff021916908373ffffffffffffffffffffffffffffffffffffffff16021790555033600260006101000a81548173ffffffffffffffffffffffffffffffffffffffff021916908373ffffffffffffffffffffffffffffffffffffffff16021790555050620002d3565b8280546200011c906200029d565b90600052602060002090601f0160209004810192826200014057600085556200018c565b82601f106200015b57805160ff19168380011785556200018c565b828001600101855582156200018c579182015b828111156200018b5782518255916020019190600101906200016e565b5b5090506200019b91906200019f565b5090565b5b80821115620001ba576000816000905550600101620001a0565b5090565b600080fd5b600073ffffffffffffffffffffffffffffffffffffffff82169050919050565b6000620001f082620001c3565b9050919050565b60006200020482620001e3565b9050919050565b6200021681620001f7565b81146200022257600080fd5b50565b60008151905062000236816200020b565b92915050565b600060208284031215620002555762000254620001be565b5b6000620002658482850162000225565b91505092915050565b7f4e487b7100000000000000000000000000000000000000000000000000000000600052602260045260246000fd5b60006002820490506001821680620002b657607f821691505b60208210811415620002cd57620002cc6200026e565b5b50919050565b610ccb80620002e36000396000f3fe608060405234801561001057600080fd5b50600436106100935760003560e01c80635df81330116100665780635df813301461010e5780636e48a0351461014157806378e9e6e61461015d5780638da5cb5b14610179578063e5860bb21461019757610093565b8063066d5dc71461009857806306fdde03146100b657806313292a02146100d4578063160d66ae146100f0575b600080fd5b6100a06101b3565b6040516100ad91906106f3565b60405180910390f35b6100be6101b9565b6040516100cb91906107a7565b60405180910390f35b6100ee60048036038101906100e99190610912565b610247565b005b6100f86102e6565b60405161010591906109da565b60405180910390f35b61012860048036038101906101239190610a21565b61030c565b6040516101389493929190610a8a565b60405180910390f35b61015b60048036038101906101569190610a21565b6103f1565b005b61017760048036038101906101729190610ad6565b610423565b005b6101816104c1565b60405161018e9190610b16565b60405180910390f35b6101b160048036038101906101ac9190610b31565b6104e7565b005b60015481565b600080546101c690610bbc565b80601f01602080910402602001604051908101604052809291908181526020018280546101f290610bbc565b801561023f5780601f106102145761010080835404028352916020019161023f565b820191906000526020600020905b81548152906001019060200180831161022257829003601f168201915b505050505081565b6001600081548092919061025a90610c1d565b91905055503360046000600154815260200190815260200160002060030160006101000a81548173ffffffffffffffffffffffffffffffffffffffff021916908373ffffffffffffffffffffffffffffffffffffffff1602179055508060046000600154815260200190815260200160002060000190805190602001906102e29291906105ad565b5050565b600360009054906101000a900473ffffffffffffffffffffffffffffffffffffffff1681565b600460205280600052604060002060009150905080600001805461032f90610bbc565b80601f016020809104026020016040519081016040528092919081815260200182805461035b90610bbc565b80156103a85780601f1061037d576101008083540402835291602001916103a8565b820191906000526020600020905b81548152906001019060200180831161038b57829003601f168201915b5050505050908060010160009054906101000a900460ff16908060020154908060030160009054906101000a900473ffffffffffffffffffffffffffffffffffffffff16905084565b60016004600083815260200190815260200160002060010160006101000a81548160ff02191690831515021790555050565b60046000838152602001908152602001600020600401818154811061044b5761044a610c66565b5b9060005260206000209060030201600201339080600181540180825580915050600190039060005260206000200160009091909190916101000a81548173ffffffffffffffffffffffffffffffffffffffff021916908373ffffffffffffffffffffffffffffffffffffffff1602179055505050565b600260009054906101000a900473ffffffffffffffffffffffffffffffffffffffff1681565b60606000600460008581526020019081526020016000206004018054905090506004600085815260200190815260200160002060040160405180606001604052808381526020018581526020018481525090806001815401808255809150506001900390600052602060002090600302016000909190919091506000820151816000015560208201518160010190805190602001906105879291906105ad565b5060408201518160020190805190602001906105a4929190610633565b50505050505050565b8280546105b990610bbc565b90600052602060002090601f0160209004810192826105db5760008555610622565b82601f106105f457805160ff1916838001178555610622565b82800160010185558215610622579182015b82811115610621578251825591602001919060010190610606565b5b50905061062f91906106bd565b5090565b8280548282559060005260206000209081019282156106ac579160200282015b828111156106ab5782518260006101000a81548173ffffffffffffffffffffffffffffffffffffffff021916908373ffffffffffffffffffffffffffffffffffffffff16021790555091602001919060010190610653565b5b5090506106b991906106bd565b5090565b5b808211156106d65760008160009055506001016106be565b5090565b6000819050919050565b6106ed816106da565b82525050565b600060208201905061070860008301846106e4565b92915050565b600081519050919050565b600082825260208201905092915050565b60005b8381101561074857808201518184015260208101905061072d565b83811115610757576000848401525b50505050565b6000601f19601f8301169050919050565b60006107798261070e565b6107838185610719565b935061079381856020860161072a565b61079c8161075d565b840191505092915050565b600060208201905081810360008301526107c1818461076e565b905092915050565b6000604051905090565b600080fd5b600080fd5b600080fd5b600080fd5b7f4e487b7100000000000000000000000000000000000000000000000000000000600052604160045260246000fd5b61081f8261075d565b810181811067ffffffffffffffff8211171561083e5761083d6107e7565b5b80604052505050565b60006108516107c9565b905061085d8282610816565b919050565b600067ffffffffffffffff82111561087d5761087c6107e7565b5b6108868261075d565b9050602081019050919050565b82818337600083830152505050565b60006108b56108b084610862565b610847565b9050828152602081018484840111156108d1576108d06107e2565b5b6108dc848285610893565b509392505050565b600082601f8301126108f9576108f86107dd565b5b81356109098482602086016108a2565b91505092915050565b600060208284031215610928576109276107d3565b5b600082013567ffffffffffffffff811115610946576109456107d8565b5b610952848285016108e4565b91505092915050565b600073ffffffffffffffffffffffffffffffffffffffff82169050919050565b6000819050919050565b60006109a061099b6109968461095b565b61097b565b61095b565b9050919050565b60006109b282610985565b9050919050565b60006109c4826109a7565b9050919050565b6109d4816109b9565b82525050565b60006020820190506109ef60008301846109cb565b92915050565b6109fe816106da565b8114610a0957600080fd5b50565b600081359050610a1b816109f5565b92915050565b600060208284031215610a3757610a366107d3565b5b6000610a4584828501610a0c565b91505092915050565b60008115159050919050565b610a6381610a4e565b82525050565b6000610a748261095b565b9050919050565b610a8481610a69565b82525050565b60006080820190508181036000830152610aa4818761076e565b9050610ab36020830186610a5a565b610ac060408301856106e4565b610acd6060830184610a7b565b95945050505050565b60008060408385031215610aed57610aec6107d3565b5b6000610afb85828601610a0c565b9250506020610b0c85828601610a0c565b9150509250929050565b6000602082019050610b2b6000830184610a7b565b92915050565b60008060408385031215610b4857610b476107d3565b5b6000610b5685828601610a0c565b925050602083013567ffffffffffffffff811115610b7757610b766107d8565b5b610b83858286016108e4565b9150509250929050565b7f4e487b7100000000000000000000000000000000000000000000000000000000600052602260045260246000fd5b60006002820490506001821680610bd457607f821691505b60208210811415610be857610be7610b8d565b5b50919050565b7f4e487b7100000000000000000000000000000000000000000000000000000000600052601160045260246000fd5b6000610c28826106da565b91507fffffffffffffffffffffffffffffffffffffffffffffffffffffffffffffffff821415610c5b57610c5a610bee565b5b600182019050919050565b7f4e487b7100000000000000000000000000000000000000000000000000000000600052603260045260246000fdfea26469706673582212201d0d265959ecb707f25205d7495295ed027dc0b36a92e4b0ecaa202132d931e764736f6c63430008090033",
  "immutableReferences": {},
  "source": "pragma solidity ^0.8.9;\n\nimport \"./VoteToken.sol\";\n\ncontract VoteDApp {\n\n    struct Vote {\n        string topic;\n        bool isFinished;\n        uint256 result;\n        address starterAddress;\n        Option[] options;\n    }\n    \n\n    struct Option {\n        uint256 optionID;\n        string option;\n        address[] addresses;\n    }\n\n    string public name = \"Vote DApp\";\n    uint256 public voteID;\n    address public owner;\n    VoteToken public voteToken;\n\n    mapping(uint256 => Vote) public votes;\n\n    constructor(VoteToken _voteToken) public {\n        voteToken = _voteToken;\n        owner = msg.sender;\n    }\n\n\n    function createVote(string memory _topic) public {\n        voteID++;\n        votes[voteID].starterAddress = msg.sender;\n        votes[voteID].topic = _topic;\n    }\n\n    function addOptionToVote(uint256 _voteID, string memory _option) public {\n        address[] memory emptyAddressArray;\n        uint256 optionID = votes[_voteID].options.length;\n        \n        votes[_voteID].options.push(\n\n            Option({\n                optionID: optionID,\n                option: _option,\n                addresses: emptyAddressArray\n            })\n        );\n    }\n\n    function plusOne(uint256 _voteID,uint256 _optionID) public {\n        votes[_voteID].options[_optionID].addresses.push(msg.sender);\n    }\n\n    function closeVote(uint256 _voteID) public {\n        votes[_voteID].isFinished = true;\n    }\n}\n",
  "sourcePath": "/Users/bob/src/vote-dapp-demo/src/contracts/VoteDApp.sol",
  "compiler": {
    "name": "solc",
    "version": "0.8.9+commit.e5eed63a.Emscripten.clang"
  },
  "schemaVersion": "3.2.3",
  "updatedAt": "2021-11-03T13:57:25.192Z",
  "devdoc": {
    "kind": "dev",
    "methods": {},
    "version": 1
  },
  "userdoc": {
    "kind": "user",
    "methods": {},
    "version": 1
  }
}