{
  "contractName": "VoteDApp",
  "abi": [
    {
      "inputs": [],
      "name": "name",
      "outputs": [
        {
          "internalType": "string",
          "name": "",
          "type": "string"
        }
      ],
      "stateMutability": "view",
      "type": "function"
    },
    {
      "inputs": [],
      "name": "owner",
      "outputs": [
        {
          "internalType": "address",
          "name": "",
          "type": "address"
        }
      ],
      "stateMutability": "view",
      "type": "function"
    },
    {
      "inputs": [],
      "name": "voteID",
      "outputs": [
        {
          "internalType": "uint256",
          "name": "",
          "type": "uint256"
        }
      ],
      "stateMutability": "view",
      "type": "function"
    },
    {
      "inputs": [
        {
          "internalType": "uint256",
          "name": "",
          "type": "uint256"
        }
      ],
      "name": "votes",
      "outputs": [
        {
          "internalType": "string",
          "name": "topic",
          "type": "string"
        },
        {
          "internalType": "bool",
          "name": "isFinished",
          "type": "bool"
        },
        {
          "internalType": "uint256",
          "name": "result",
          "type": "uint256"
        },
        {
          "internalType": "address",
          "name": "starterAddress",
          "type": "address"
        },
        {
          "internalType": "uint256",
          "name": "numProposals",
          "type": "uint256"
        }
      ],
      "stateMutability": "view",
      "type": "function"
    },
    {
      "inputs": [
        {
          "internalType": "string",
          "name": "_topic",
          "type": "string"
        }
      ],
      "name": "createVote",
      "outputs": [],
      "stateMutability": "nonpayable",
      "type": "function"
    },
    {
      "inputs": [
        {
          "internalType": "uint256",
          "name": "_voteID",
          "type": "uint256"
        },
        {
          "internalType": "string",
          "name": "_proposal",
          "type": "string"
        }
      ],
      "name": "addProposalToVote",
      "outputs": [],
      "stateMutability": "nonpayable",
      "type": "function"
    },
    {
      "inputs": [
        {
          "internalType": "uint256",
          "name": "_voteID",
          "type": "uint256"
        },
        {
          "internalType": "uint256",
          "name": "_proposalID",
          "type": "uint256"
        }
      ],
      "name": "plusOne",
      "outputs": [],
      "stateMutability": "nonpayable",
      "type": "function"
    },
    {
      "inputs": [
        {
          "internalType": "uint256",
          "name": "_voteID",
          "type": "uint256"
        }
      ],
      "name": "closeVote",
      "outputs": [],
      "stateMutability": "nonpayable",
      "type": "function"
    },
    {
      "inputs": [
        {
          "internalType": "uint256",
          "name": "_voteID",
          "type": "uint256"
        }
      ],
      "name": "getVote",
      "outputs": [
        {
          "internalType": "string",
          "name": "",
          "type": "string"
        },
        {
          "internalType": "bool",
          "name": "",
          "type": "bool"
        },
        {
          "internalType": "uint256",
          "name": "",
          "type": "uint256"
        },
        {
          "internalType": "address",
          "name": "",
          "type": "address"
        },
        {
          "internalType": "uint256",
          "name": "",
          "type": "uint256"
        }
      ],
      "stateMutability": "view",
      "type": "function"
    },
    {
      "inputs": [
        {
          "internalType": "uint256",
          "name": "_voteID",
          "type": "uint256"
        },
        {
          "internalType": "uint256",
          "name": "_proposalID",
          "type": "uint256"
        }
      ],
      "name": "getVoteProposal",
      "outputs": [
        {
          "internalType": "string",
          "name": "",
          "type": "string"
        },
        {
          "internalType": "address[]",
          "name": "",
          "type": "address[]"
        }
      ],
      "stateMutability": "view",
      "type": "function"
    }
  ],
  "bytecode": "0x60806040526040518060400160405280600981526020017f566f746520444170700000000000000000000000000000000000000000000000815250600090805190602001906200005192919062000066565b503480156200005f57600080fd5b506200017b565b828054620000749062000116565b90600052602060002090601f016020900481019282620000985760008555620000e4565b82601f10620000b357805160ff1916838001178555620000e4565b82800160010185558215620000e4579182015b82811115620000e3578251825591602001919060010190620000c6565b5b509050620000f39190620000f7565b5090565b5b8082111562000112576000816000905550600101620000f8565b5090565b600060028204905060018216806200012f57607f821691505b602082108114156200014657620001456200014c565b5b50919050565b7f4e487b7100000000000000000000000000000000000000000000000000000000600052602260045260246000fd5b610fcd806200018b6000396000f3fe608060405234801561001057600080fd5b506004361061009e5760003560e01c80635a55c1f0116100665780635a55c1f0146101485780635df813301461017c5780636e48a035146101b057806378e9e6e6146101cc5780638da5cb5b146101e85761009e565b80630455fc0b146100a3578063066d5dc7146100bf57806306fdde03146100dd57806313292a02146100fb5780633c0be28f14610117575b600080fd5b6100bd60048036038101906100b89190610a9d565b610206565b005b6100c76102c8565b6040516100d49190610ce6565b60405180910390f35b6100e56102ce565b6040516100f29190610c33565b60405180910390f35b61011560048036038101906101109190610a33565b61035c565b005b610131600480360381019061012c9190610af1565b6103fb565b60405161013f929190610c55565b60405180910390f35b610162600480360381019061015d9190610a74565b610571565b604051610173959493929190610c8c565b60405180910390f35b61019660048036038101906101919190610a74565b6106b7565b6040516101a7959493929190610c8c565b60405180910390f35b6101ca60048036038101906101c59190610a74565b6107a2565b005b6101e660048036038101906101e19190610af1565b6107d4565b005b6101f0610863565b6040516101fd9190610c18565b60405180910390f35b606060036000848152602001908152602001600020600401600081548092919061022f90610e99565b91905055506040518060400160405280838152602001828152506003600085815260200190815260200160002060050160006003600087815260200190815260200160002060040154815260200190815260200160002060008201518160000190805190602001906102a2929190610889565b5060208201518160010190805190602001906102bf92919061090f565b50905050505050565b60015481565b600080546102db90610e36565b80601f016020809104026020016040519081016040528092919081815260200182805461030790610e36565b80156103545780601f1061032957610100808354040283529160200191610354565b820191906000526020600020905b81548152906001019060200180831161033757829003601f168201915b505050505081565b6001600081548092919061036f90610e99565b91905055503360036000600154815260200190815260200160002060030160006101000a81548173ffffffffffffffffffffffffffffffffffffffff021916908373ffffffffffffffffffffffffffffffffffffffff1602179055508060036000600154815260200190815260200160002060000190805190602001906103f7929190610889565b5050565b60608060036000858152602001908152602001600020600501600084815260200190815260200160002060000160036000868152602001908152602001600020600501600085815260200190815260200160002060010181805461045e90610e36565b80601f016020809104026020016040519081016040528092919081815260200182805461048a90610e36565b80156104d75780601f106104ac576101008083540402835291602001916104d7565b820191906000526020600020905b8154815290600101906020018083116104ba57829003601f168201915b505050505091508080548060200260200160405190810160405280929190818152602001828054801561055f57602002820191906000526020600020905b8160009054906101000a900473ffffffffffffffffffffffffffffffffffffffff1673ffffffffffffffffffffffffffffffffffffffff1681526020019060010190808311610515575b50505050509050915091509250929050565b6060600080600080600360008781526020019081526020016000206000016003600088815260200190815260200160002060010160009054906101000a900460ff166003600089815260200190815260200160002060020154600360008a815260200190815260200160002060030160009054906101000a900473ffffffffffffffffffffffffffffffffffffffff16600360008b81526020019081526020016000206004015484805461062490610e36565b80601f016020809104026020016040519081016040528092919081815260200182805461065090610e36565b801561069d5780601f106106725761010080835404028352916020019161069d565b820191906000526020600020905b81548152906001019060200180831161068057829003601f168201915b505050505094509450945094509450945091939590929450565b60036020528060005260406000206000915090508060000180546106da90610e36565b80601f016020809104026020016040519081016040528092919081815260200182805461070690610e36565b80156107535780601f1061072857610100808354040283529160200191610753565b820191906000526020600020905b81548152906001019060200180831161073657829003601f168201915b5050505050908060010160009054906101000a900460ff16908060020154908060030160009054906101000a900473ffffffffffffffffffffffffffffffffffffffff16908060040154905085565b60016003600083815260200190815260200160002060010160006101000a81548160ff02191690831515021790555050565b600360008381526020019081526020016000206005016000828152602001908152602001600020600101339080600181540180825580915050600190039060005260206000200160009091909190916101000a81548173ffffffffffffffffffffffffffffffffffffffff021916908373ffffffffffffffffffffffffffffffffffffffff1602179055505050565b600260009054906101000a900473ffffffffffffffffffffffffffffffffffffffff1681565b82805461089590610e36565b90600052602060002090601f0160209004810192826108b757600085556108fe565b82601f106108d057805160ff19168380011785556108fe565b828001600101855582156108fe579182015b828111156108fd5782518255916020019190600101906108e2565b5b50905061090b9190610999565b5090565b828054828255906000526020600020908101928215610988579160200282015b828111156109875782518260006101000a81548173ffffffffffffffffffffffffffffffffffffffff021916908373ffffffffffffffffffffffffffffffffffffffff1602179055509160200191906001019061092f565b5b5090506109959190610999565b5090565b5b808211156109b257600081600090555060010161099a565b5090565b60006109c96109c484610d26565b610d01565b9050828152602081018484840111156109e157600080fd5b6109ec848285610df4565b509392505050565b600082601f830112610a0557600080fd5b8135610a158482602086016109b6565b91505092915050565b600081359050610a2d81610f80565b92915050565b600060208284031215610a4557600080fd5b600082013567ffffffffffffffff811115610a5f57600080fd5b610a6b848285016109f4565b91505092915050565b600060208284031215610a8657600080fd5b6000610a9484828501610a1e565b91505092915050565b60008060408385031215610ab057600080fd5b6000610abe85828601610a1e565b925050602083013567ffffffffffffffff811115610adb57600080fd5b610ae7858286016109f4565b9150509250929050565b60008060408385031215610b0457600080fd5b6000610b1285828601610a1e565b9250506020610b2385828601610a1e565b9150509250929050565b6000610b398383610b45565b60208301905092915050565b610b4e81610dac565b82525050565b610b5d81610dac565b82525050565b6000610b6e82610d67565b610b788185610d8a565b9350610b8383610d57565b8060005b83811015610bb4578151610b9b8882610b2d565b9750610ba683610d7d565b925050600181019050610b87565b5085935050505092915050565b610bca81610dbe565b82525050565b6000610bdb82610d72565b610be58185610d9b565b9350610bf5818560208601610e03565b610bfe81610f6f565b840191505092915050565b610c1281610dea565b82525050565b6000602082019050610c2d6000830184610b54565b92915050565b60006020820190508181036000830152610c4d8184610bd0565b905092915050565b60006040820190508181036000830152610c6f8185610bd0565b90508181036020830152610c838184610b63565b90509392505050565b600060a0820190508181036000830152610ca68188610bd0565b9050610cb56020830187610bc1565b610cc26040830186610c09565b610ccf6060830185610b54565b610cdc6080830184610c09565b9695505050505050565b6000602082019050610cfb6000830184610c09565b92915050565b6000610d0b610d1c565b9050610d178282610e68565b919050565b6000604051905090565b600067ffffffffffffffff821115610d4157610d40610f40565b5b610d4a82610f6f565b9050602081019050919050565b6000819050602082019050919050565b600081519050919050565b600081519050919050565b6000602082019050919050565b600082825260208201905092915050565b600082825260208201905092915050565b6000610db782610dca565b9050919050565b60008115159050919050565b600073ffffffffffffffffffffffffffffffffffffffff82169050919050565b6000819050919050565b82818337600083830152505050565b60005b83811015610e21578082015181840152602081019050610e06565b83811115610e30576000848401525b50505050565b60006002820490506001821680610e4e57607f821691505b60208210811415610e6257610e61610f11565b5b50919050565b610e7182610f6f565b810181811067ffffffffffffffff82111715610e9057610e8f610f40565b5b80604052505050565b6000610ea482610dea565b91507fffffffffffffffffffffffffffffffffffffffffffffffffffffffffffffffff821415610ed757610ed6610ee2565b5b600182019050919050565b7f4e487b7100000000000000000000000000000000000000000000000000000000600052601160045260246000fd5b7f4e487b7100000000000000000000000000000000000000000000000000000000600052602260045260246000fd5b7f4e487b7100000000000000000000000000000000000000000000000000000000600052604160045260246000fd5b6000601f19601f8301169050919050565b610f8981610dea565b8114610f9457600080fd5b5056fea2646970667358221220b1c9f106c1907af66f3833a1a63df5af71481449b890a6717b69a9e3728875ac64736f6c63430008040033",
  "immutableReferences": {},
  "source": "pragma solidity 0.8.4;\n\nimport \"./VoteToken.sol\";\n\ncontract VoteDApp {\n\n    struct Proposal {\n        string proposal;\n        address[] addresses;\n    }\n\n    struct Vote {\n        string topic;\n        bool isFinished;\n        uint256 result;\n        address starterAddress;\n        uint numProposals;\n        mapping (uint => Proposal) proposals;\n    }\n\n\n    string public name = \"Vote DApp\";\n    uint256 public voteID;\n    address public owner;\n\n    mapping(uint256 => Vote) public votes;\n\n    function createVote(string memory _topic) public {\n        voteID++;\n        votes[voteID].starterAddress = msg.sender;\n        votes[voteID].topic = _topic;\n    }\n\n    function addProposalToVote(uint256 _voteID, string memory _proposal) public {\n        address[] memory emptyAddressArray;\n\n        votes[_voteID].numProposals++;\n        votes[_voteID].proposals[votes[_voteID].numProposals] = \n            Proposal({\n                proposal: _proposal,\n                addresses: emptyAddressArray\n            });\n\n    }\n\n    function plusOne(uint256 _voteID,uint256 _proposalID) public {\n        votes[_voteID].proposals[_proposalID].addresses.push(msg.sender);\n    }\n\n    function closeVote(uint256 _voteID) public {\n        votes[_voteID].isFinished = true;\n    }\n\n  function getVote(uint256 _voteID) public view returns (string memory, bool, uint256, address, uint){\n      return (votes[_voteID].topic,\n      votes[_voteID].isFinished,\n      votes[_voteID].result,\n      votes[_voteID].starterAddress,\n      votes[_voteID].numProposals);\n  }\n\n  function getVoteProposal(uint256 _voteID, uint256 _proposalID) public view returns (string memory, address[] memory) {\n      return (votes[_voteID].proposals[_proposalID].proposal, votes[_voteID].proposals[_proposalID].addresses);\n  }\n}\n",
  "sourcePath": "/Users/bob/src/vote-dapp-demo/src/contracts/VoteDApp.sol",
  "compiler": {
    "name": "solc",
    "version": "0.8.4+commit.c7e474f2.Emscripten.clang"
  },
  "schemaVersion": "3.2.3",
  "updatedAt": "2021-11-10T10:25:04.226Z",
  "devdoc": {
    "kind": "dev",
    "methods": {},
    "version": 1
  },
  "userdoc": {
    "kind": "user",
    "methods": {},
    "version": 1
  }
}